:020000041000EA
:1000000000B5324B212058609868022188439860DF
:10001000D860186158612E4B002199600221596106
:100020000121F02299502B49196001219960352056
:1000300000F044F80222904214D00621196600F024
:1000400034F8196E01211966002018661A6600F04E
:100050002CF8196E196E196E052000F02FF8012189
:100060000842F9D1002199601B49196000215960AB
:100070001A491B48016001219960EB211966A021F2
:10008000196600F012F800219960164914480160C1
:100090000121996001BC002800D000471248134993
:1000A000086003C880F30888084703B5996A0420EC
:1000B0000142FBD001200142F8D103BD02B5186610
:1000C0001866FFF7F2FF186E186E02BD00000240BE
:1000D000000000180000070000035F00212200005C
:1000E000F4000018222000A00001001008ED00E03C
:1000F00000000000000000000000000074B24E7A12
:1001000000200420F7010010C3010010C5010010F9
:10011000C1010010C1010010C1010010C101001097
:10012000C1010010C1010010C1010010C701001081
:10013000C1010010C1010010C9010010CB01001065
:10014000CD010010CD010010CD010010CD01001037
:10015000CD010010CD010010CD010010CD01001027
:10016000CD010010CD010010CD010010CD01001017
:10017000CD010010CD010010CD010010CD01001007
:10018000CD010010CD010010CD010010CD010010F7
:10019000CD010010CD010010CD010010CD010010E7
:1001A000CD010010CD010010CD010010CD010010D7
:1001B000CD010010CD010010CD010010CD010010C7
:1001C00000BE00BE00BE00BE00BE00BE00F04BF888
:1001D000103800BEF2EB887108AD001034AD00108D
:1001E0003402001090A31AE700202149086006C8D5
:1001F00081F3088810471F48006800282FD10DA4FC
:100200000ECC002902D000F012F8F9E71A491B4A77
:10021000002000E001C19142FCD1194988471949E9
:1002200088471949884700BEFDE701C901C29A42C3
:10023000FBD3704734AD0010C0000020C006002082
:1002400034B30010000004200000042034B3001078
:1002500000100420001004200000000070470B482C
:1002600003F064F80047EFF30580C0B27047000068
:1002700008ED00E0000000D0C0060020C4240020EB
:100280002D1800100D03001009190010575600001A
:1002900006005250ABB36053E4A100100600525068
:1002A000861C0302ECA10010060052505422A29DAD
:1002B00000A2001005005250DE65F46834B300104F
:1002C000F8B5C04610B5064C2378002B07D1054B76
:1002D000002B02D0044800E000BF0123237010BDB2
:1002E000C80700200000000010930010044B10B558
:1002F000002B03D00349044800E000BF10BDC046F6
:1003000000000000CC0700201093001030B585B02D
:1003100004F0D8F84649474806F0FEFE464801F08A
:100320006BF80121122000F0AFF80121132000F03A
:10033000ABF80121102000F0A7F8112000F0BCF864
:10034000D0231B06802292025A625A6108F03EFEB8
:1003500008F04CFE08F090FE384C6B462269009283
:10036000A28A9A80A27D9A7120686168A268E36877
:1003700008F094FE6B4622690092A28A9A80A27DC0
:100380009A7120686168A268E36808F095FE2C4CB9
:100390000021200007F086FF2A4A2B49200007F0A1
:1003A0008FFF012803D0294804F050F8FEE7FA2215
:1003B000274C80231B010293264901910093264B71
:1003C00092001F49200008F07FF8244903230B7294
:1003D000023B8B760023CB763C330B83204BCB60E8
:1003E000204B0B64204BCB64200008F0ABF9011EBE
:1003F00015DB1E4804F02AF81D4A002313705370C1
:1004000093701C4B93600D23D3601B49104808F078
:10041000EFF9011E07DB194804F018F8FEE7184849
:1004200004F044F8FEE7174804F040F8FEE7C04641
:10043000404B4C0000C00340501E0020E0930010D1
:10044000400E00205B0700003805002010930010CC
:10045000D40D0020500E0020501600203C05002036
:1004600028930010349300103C9300106493001004
:10047000300E00207493001084930010AC93001091
:10048000489300109493001010B58300084A9446D6
:1004900063441C6840226240C02414408022520100
:1004A00013431C60C000034B9C466044416010BD78
:1004B00004C001400040014010B501238340D02218
:1004C0001206936293610521FFF7DEFF10BD000065
:1004D000EFF3108072B6034B1B68002BFBD0BFF309
:1004E0005F8F70472C0100D0BFF35F8F024B00225B
:1004F0001A6080F3108870472C0100D0F8B5060010
:100500000C001500FFF7E4FFE308F718F15C072281
:100510002240012393400B4205D1DBB20B433B70D9
:10052000FFF7E2FFF8BD2100280001F00FFAF0B557
:1005300083B00600019114001F00FFF7C9FF00E01F
:100540000134BC420CD8E308F518F35C07212140C4
:1005500001228A401A42F3D1D2B21A432A7001E032
:1005600001246442FFF7C0FF002C02DB200003B02F
:10057000F0BD019B002BF9D0089801F0E7F90000CD
:10058000034B1B6802201840431E9841C0B27047BD
:1005900000C00640002307E0054A9A189200BFF306
:1005A0005F8F0021116001331F2BF5D97047C046C2
:1005B00040000034054A1078431CDBB21370172B3F
:1005C00002D9130010221A707047C046940500200B
:1005D00000B583B00100044B00931F231822034889
:1005E000FFF7A5FF03B000BDF8930010380D002001
:1005F00070B505000C00080000F0CAFD200000F0F6
:10060000AFFE0849200000F0EFFDFFF7D3FF064BD7
:100610009C466044800068602C75A400034BE55044
:1006200070BDC04635090010400000346022002033
:100630000A4B1A68EFF3108172B61368002BFCD0D6
:10064000BFF35F8F054B1B68BFF35F8F00221A60FB
:1006500081F3108840BF0020002170477C240020D7
:1006600010B5002922D003681B7B99421ED8174B76
:100670009C466144090183689C4661440C68496852
:10068000002A19D003681B7B9A4215D883680F484B
:100690008446624412019A181068536802000120CF
:1006A0008B4201D80ED00020C0B210BD084B094AC1
:1006B0003B21094801F02CF9054B064A3B2106482D
:1006C00001F026F9A242EFD8EDE7C046FFFFFF0F89
:1006D00060940010209700102894001010B5002995
:1006E0001ED0037B99421BD84B005B18033B046868
:1006F000A4466344002919D0002A1DD0914221D07C
:10070000002A25D0047BA24222D804685000801819
:10071000033820188170197800291FD11A7010BD74
:10072000104B114A6921114801F0F2F8104B114A9F
:1007300070310E4801F0ECF80F4B0E4A71210B4856
:1007400001F0E6F80D4B0B4A7221084801F0E0F881
:10075000044B054A6921054801F0DAF841701A7026
:10076000DDE7C046949400108C970010B094001000
:10077000FC94001068970010089500101495001064
:1007800070B506000D001400002914D0002A14D002
:10079000806873689847002806D02200290030003E
:1007A000FFF79CFF280007E02A0021003000FFF738
:1007B00095FF200000E0100070BD0800FCE700007D
:1007C000F0B583B00500009201930AAB1C780BAB27
:1007D0001F78002C26D003685A7B944207D101234E
:1007E000002B19D1002C3BD1200003B0F0BD002C10
:1007F0000CD01A7B944209D81A6863001B19033B7A
:10080000D3189B78002BEBD00123E9E73E4B3F4AFE
:1008100069213F4801F07CF83E4B3F4A65213F4843
:1008200001F076F803689C7B002CDBD012D01A7B99
:1008300094420FD862001219033A19688C46624438
:1008400051789973002900D1D973002393705370A4
:100850001370C7E72C4B2D4A69212D4801F058F839
:10086000002C3AD02B681B7B9C4236D82C4BE318CB
:100870001B01AA6894466344009A1A60019A5A6060
:10088000089A9A60099ADA602E68002C2BD030D032
:10089000337B9C422DD863001B19033B326894467E
:1008A000634400229A705A701A70717B22003000E3
:1008B000FFF766FF7073844200D095E7287D009AA9
:1008C000019B00F0D9FC061E01D0002F17D00C9B15
:1008D000002B00D188E71E7086E7124B124A3B219D
:1008E0000E4801F015F8114B114AA621084801F0F5
:1008F0000FF8054B054A6921054801F009F82868F9
:10090000210000F017FFE2E7949400108C9700108C
:10091000B09400102C9500109897001028940010A7
:10092000FFFFFF0F60940010209700102494001028
:100930007C970010F0B5DE4657464E464546E0B57A
:100940008BB00990002308938200B24BD658370031
:1009500032E0B14BB14A3D21B14800F0D9FFB14B73
:10096000B14A3B21B14800F0D3FFB14BB14A8C21D1
:10097000AE4800F0CDFFB04BAE4A9021AB4800F03E
:10098000C7FFA84BAD4A4021A84800F0C1FF2A6824
:100990006B68099800F070FC00239A4698467B68C3
:1009A000BFF35F8F00221A6086F310884346002B46
:1009B00051D1002800D126E100F0F6FB02000B1E09
:1009C000C7DB00200021069007917868EFF31086BE
:1009D00072B601680029FCD0BFF35F8F3968884682
:1009E0004C7B002C32D0BAD0097B8C42B7D89449CA
:1009F00065182D01B9688C46654428686968801AB5
:100A000099410029C3DC01D10028C0D10021404612
:100A100000F086FEA042A8D12A686B680692079370
:100A2000AB689846EB689A464346002BA3D0002C4F
:100A3000A7D03B681B7B9C42A3D8631EFA68D35C9B
:100A400008931B02184338610020A8E700239A4648
:100A500098460020A3E7089B1B0223439946514672
:100A60001800C04705000E007A68EFF3108B72B6CD
:100A7000136859424B41D9B2002BF9D1BFF35F8FB4
:100A8000002E26DB002E52DD3B69002B53D04B4558
:100A900072D100F089FB02000B1E73DB010018000D
:100AA00052197341984202D804D1914202D90122CD
:100AB0005242D317002B6BDB0021049101310391CB
:100AC000029451460191414600913800FFF778FEAB
:100AD00049E03B69002BD5D04B451CD1069A079BBA
:100AE00010001900521BB341994202D804D1904220
:100AF00002D901225242D317002B12DB00210491AC
:100B00000131039102945146019141460091380010
:100B1000FFF756FE27E04B4B464A9F21434800F023
:100B2000F7FE3D4B3D4A3D213D4800F0F1FE002ED1
:100B300001D1002DA8D13A68002C45D0537B9C42AE
:100B40002CD1012100293FD1D37B002B42D1D4737A
:100B5000002C52D03B681B7B9C424ED8FA68013C6B
:100B6000135D0133135500233B617A68BFF35F8F38
:100B700013608BF310881FE7324B2E4AA2212B48BB
:100B800000F0C6FE244B254A3D21254800F0C0FE5A
:100B9000214B224A3D21224800F0BAFE002C0DD004
:100BA000137B9C420AD863001B19033B10688446E0
:100BB00063449B78002BC5D00121C3E7224B234A15
:100BC0006921234800F0A4FE224B234AF721204844
:100BD00000F09EFE002B0AD0117B8B4207D85900F3
:100BE000CB18033B11688C4663445C70AFE7164B2F
:100BF000164A6921164800F08BFE0A4B0F4A402125
:100C00000A4800F085FE0BB0F0BCBB46B246A946D0
:100C1000A046F0BD6022002054950010EC96001014
:100C20007095001060940010209700102894001018
:100C3000B495001004970010CC9500104497001054
:100C4000FFFFFF0FD8950010949400108C970010B0
:100C5000B0940010149600105897001010B50A4B6D
:100C60005B68002B04D00A21084800F099FB10BDF6
:100C7000054C2300064A1021206800F071FC032176
:100C80002000FFF7B5FCEEE7980500207C2400204B
:100C90006106001010B5064B5B68002B01D00448BC
:100CA00010BD044B044A5C21044800F031FEC046EC
:100CB00098050020389600102C97001028940010FA
:100CC000F0B5DE4657464E464546E0B58BB0804609
:100CD00016001F00149B9A46159B994616AB1B786D
:100CE0009B461F2302AA9446634400221A7032E0F6
:100CF000002809D042461268127B904204D8421E56
:100D00004146C9688A5C48E0434B444A4021444814
:100D100000F0FEFD0798002B75D05B46002B72D0CB
:100D20004946D04704000D0003000B4300D171E099
:100D3000002946DB00F038FA06000F1E55DB361995
:100D40006F41B94202D804D1B04202D9012676429D
:100D5000F717002F4FDB43465A68EFF3108472B643
:100D6000136859424B41D9B20791002BF8D1BFF318
:100D70005F8F1F3302AA94466344049300230393B6
:100D800002934B4601935346009332003B0040468A
:100D9000FFF716FD031EABD1020041464968BFF3C1
:100DA0005F8F00250D6084F31088002B29D01F234E
:100DB00002A98C4663441B78002BABD1120210436E
:100DC000A9E732003B00361BAF41BB4202D804D139
:100DD000B24202D901267642F717002FBBDA114B37
:100DE000114A3D21114800F093FD0E4B0E4A3D2162
:100DF0000E4800F08DFD0B4B0B4A3D210B4800F0D7
:100E000087FD012040420BB0F0BCBB46B246A9466C
:100E1000A046F0BD0798F6E76094001044970010D4
:100E20002894001054950010EC9600107095001056
:100E3000F8B504004268EFF3108572B613685842A3
:100E40004341D8B2002BF9D1BFF35F8FCBB22268F8
:100E5000567BB3421BD10120002847D0206988422D
:100E60002BD0090AC9B2002B2DD02068007B834209
:100E700029D8581EE668305C88422AD00020636872
:100E8000BFF35F8F00221A6085F31088F8BD002B36
:100E90000DD0167BB3420AD85E00F618033E1768E1
:100EA000BC466644B678002ED6D00120D4E7124B5B
:100EB000124A6921124800F02BFD124B124AFE2102
:100EC000124800F025FD124B124A40210F4800F055
:100ED0001FFD1900100000F02DFC0028CFD10621C5
:100EE0000D4B094AFF31094800F012FD23698B427E
:100EF000C5D100232361C2E7949400108C970010A1
:100F0000B09400105C960010D49600102894001045
:100F1000609400104497001080960010F0B587B0E0
:100F200006000F00FFF79FF900281FD10624644236
:100F3000E517A4197D41BD4202D803D1B44201D9BD
:100F400000240025002D14DB0494059500F02CF9F5
:100F500002000B1E13DBA41A9D41002D17DC14D0D8
:100F60003000390000F02CF907B0F0BD234800F044
:100F7000EDFC234B234A3D21234800F0C9FC204BC4
:100F8000204A3D21204800F0C3FC002CE8D0FFF7A8
:100F900081FE0023029301931C4B0093049A059B4E
:100FA000FFF78EFE002818DADAE7002300E00023BE
:100FB000002BD5D1164B1A68EFF3108172B6136867
:100FC000002BFCD0BFF35F8F114B1B68BFF35F8F0B
:100FD00000221A6081F3108820BF0499059A0D4BF6
:100FE0005B6A9A42E3D80B48806A884203D29A42ED
:100FF000DBD00123DCE70123DAE7C046849600104A
:1010000054950010EC9600107095001031060010F9
:101010007C24002000400540F8B504000D0000F0DD
:10102000C3F802000B1E10DB200029008018594174
:101030008B4202D804D1824202D901204042C1171A
:10104000002908DBFFF76AFFF8BD064B064A3D2181
:10105000064800F05DFC034B034A3D21034800F0C5
:1010600057FCC04654950010EC9600107095001087
:1010700010B5FA2292000023002103F021F8FFF7B7
:10108000CBFF10BD70B584B006000C00FFF702FE68
:10109000002302930193194B009332002300FFF7C2
:1010A0000FFE051E11DD20BFFFF7F4FD2900FFF73D
:1010B000BFFE134B5B6A9C421BD8114A926AB24234
:1010C0001AD29C4213D0012014E00D4B5B6A9C4263
:1010D00009D80B4A926AB24207D29C4201D0012041
:1010E00008E0002006E0002004E0012002E00020EB
:1010F00000E0002004B070BD0120FBE731060010C5
:101100000040054070B5EFF305833F2018401038CC
:10111000EFF3108C72B6194B1B68002BFBD0BFF39A
:101120005F8F012319008140154A5163154A1278D7
:101130001400C440234214D0114B5C6A8300124D4A
:101140005B599C4206D38300104C1B598A430D49BE
:101150000A7007E00A4A031D9B0099589950002322
:1011600000E00023BFF35F8F044A002111608CF37D
:101170001088002B00D0984770BDC046280100D0D1
:1011800000400540C124002094240020240C0020AD
:1011900010B50100024A0348FFF7B0F910BDC04680
:1011A000B0970010BE240020044B5B6A034A906A8B
:1011B0001900536A9942F9D17047C0460040054072
:1011C000084B5B6A01E0074B5B6A8B42FBD301E093
:1011D000044B5B6A8B4203D1024B9B6A8342F7D379
:1011E0007047C0460040054070B504000D00EFF3A5
:1011F000108672B61B4B1B68002BFBD0BFF35F8FB2
:10120000002D1CD0200000F03BFD174B83420BD07B
:101210001900200000F03CFD0121200000F020FD1D
:101220000123A340114A1360A400114BE550BFF302
:101230005F8F0C4B00221A6086F3108870BDA200ED
:101240000B4B0021D1500122A2400A490B78934355
:101250000B700549200000F045FD0021200000F042
:10126000FFFCE4E7280100D00511001038600540BC
:10127000240C0020C1240020F0B5DE4600B584B067
:101280000400150001921E000293FFF78DFF0395E5
:101290008E4202D84ED185424CD9EFF3108B72B6F4
:1012A000274B1B68002BFBD0BFF35F8F254A1778B5
:1012B0000125A540EBB23B431370234B5D63221D18
:1012C00092000199D150A2002049029850501B6A07
:1012D0002B4212D11C4B1B6C2B4208D00020BFF3B9
:1012E0005F8F174B00221A608BF3108823E0184B96
:1012F000184AC121184800F00BFBFFF755FF8E423A
:1013000014D802D1039B834210D80E4B1B78BB42EA
:101310000ED00D4B1D625D631F2004400123A340CE
:101320000E4A1360074B1F701E38D8E70020D6E71F
:101330000120D4E7012004B080BCBB46F0BDC0460C
:10134000280100D0C1240020004005409424002042
:10135000D497001038980010F897001080E200E051
:10136000EFF3108C72B60B4B1B68002BFBD0BFF356
:101370005F8F01238340084A136208490A789A4321
:101380000A70BFF35F8F034B00221A608CF3108842
:101390007047C046280100D000400540C12400200D
:1013A000024B9C4661448900016070474000003454
:1013B00070B504000D00FFF7FDF801002000FFF7F5
:1013C000EFFFFF2323716571BFF35F8F70BD10B511
:1013D0000021FFF7EDFF10BD10B5FF21FFF7E8FF7B
:1013E00010BD0000034B9C46614489000160BFF3BF
:1013F0005F8F70474000003410B504000120FFF7F4
:10140000E7F801002000FFF7EDFF10BD10B500293F
:101410001ED0037B99421BD84B005B18033B04682A
:10142000A4466344002919D0002A1DD0914221D03E
:10143000002A25D0047BA24222D8046850008018DC
:10144000033820188170197800291FD11A7010BD37
:10145000104B114A6921114800F05AFA104B114AF9
:1014600070310E4800F054FA0F4B0E4A71210B48B0
:1014700000F04EFA0D4B0B4A7221084800F048FA72
:10148000044B054A6921054800F042FA41701A7080
:10149000DDE7C04694940010509A0010B0940010FC
:1014A000FC9400103C9A0010089500101495001050
:1014B00070B506000D001400002914D0002A14D0C5
:1014C000806873689847002806D022002900300001
:1014D000FFF79CFF280007E02A0021003000FFF7FB
:1014E00095FF200000E0100070BD0800FCE7000040
:1014F00010B50023437301338373037BC37301234C
:10150000027B9A4214D9002B0CD0027B934209D85B
:101510005A00D218033A01688C4662440133DBB2A8
:101520005370EDE70B4B0C4A69210C4800F0F0F9C1
:10153000002A09D0924207D8016853009A18033A4A
:101540008A180023537010BD024B034A69210348D7
:1015500000F0DEF994940010509A0010B09400103E
:1015600010B5017342608360FFF7C2FF10BD000039
:1015700070B50400081E00D170BD002934D0237B53
:10158000994231D84B005B18033B22689446634470
:101590005A78002AF0D02DD0237B9A422AD85300C3
:1015A0009B18033B21688C4663445D780021597089
:1015B000002825D0237B984222D843001B18033BE8
:1015C00021688C4663440021597001002000FFF718
:1015D0006FFF060029002000FFF7CAFF020031005C
:1015E0002000FFF765FFC7E7084B094A6921094852
:1015F00000F08EF9054B064A6921064800F088F98B
:10160000024B034A6921034800F082F994940010C8
:10161000509A0010B094001070B505000C00160030
:10162000002928D02DD0037B99422AD84B005B1883
:10163000033B0268944663445A78002A27D19A787B
:10164000002A2AD11978FFF793FF0300002E03D058
:10165000EA7B002A27D1EC73002B37D1002C49D02C
:101660002B7B9C4246D82B6861000C19033C1C194B
:101670000023637070BD224B224A3821224800F0BB
:1016800047F9224B224A6921224800F041F9224BB6
:101690001C4A3A211C4800F03BF9204B194A3B21D7
:1016A000194800F035F9002A0AD0297B8A4207D868
:1016B00051008A18033A29688C4662445470CAE77C
:1016C000124B134A6921134800F022F9002B0BD06A
:1016D0002A7B934208D843001B18033B2A68944690
:1016E000634400229A70B9E7084B094A6921094806
:1016F00000F00EF9054B064A6921064800F008F98A
:101700005C990010289A00106499001094940010BD
:10171000509A0010B09400109C990010C4990010C9
:1017200070B504000A00457B2900FFF775FF607360
:10173000280070BD70B50400002967D0437B8B4240
:101740000ED0002911D0037B99420ED84B005B18B4
:10175000033B0268D0188378002B0CD1002056E0A0
:101760000121FFF7DDFF012051E0294B294A6921C2
:10177000294800F0CDF8002B20D0227B93421DD8C1
:101780005A00D318033B2268D2182568EB5C8B42C1
:101790001AD0002B1BD0227B934218D85A00D318A2
:1017A000033B2268D21853788B4216D0002BF0D11D
:1017B0001A4B1B4A67211B4800F0AAF8144B154A24
:1017C0006921154800F0A4F84378137007E0104B26
:1017D000104A6921104800F09BF8437853700023A9
:1017E0008370437001222000FFF716FF0200617B27
:1017F000814205D02000FFF75BFE6073012006E008
:10180000094B074A6D21074800F082F8002070BD9F
:1018100094940010509A0010B0940010E8990010B1
:10182000109A001064990010F099001070B5264BC2
:10183000264A1A60264B274A1A60274B9A68254B7E
:101840009343FAD1254C01E008CC9847244B9C42A5
:10185000FAD300F015F91E4B224A1A601E4B9B6802
:10186000DB43DB01FAD1204B40229A675A671A67A3
:10187000DA661E4C03E02000FFF7A9FD08341C4B7C
:101880009C4206D26379002BF5D02000FFF7A4FD1F
:10189000F4E7184CA168184DC022280002F0D0FCD3
:1018A000A560FEF7E0FC002800D000BEFEF772FE47
:1018B00000F07AFBFFF7D2F9104C01E008CC984712
:1018C0000F4B9C42FAD370BD00E00040BFCDFBFE41
:1018D00000F00040FE7F3C0000C00040A806002051
:1018E000B8060020FFFFFF0100F00140A006002025
:1018F000A806002000ED00E000000020B80600204F
:10190000C006002000BEFDE710B5FFF7FBFF00009A
:1019100010B582B00C001900002A0CD0084B002A28
:101920000BD00192009323000200064802F0BEFD96
:101930000120FFF7E7FF044BF1E7034AF1E7C04658
:101940005C9A00106C9A0010DCAB00100FB400B56C
:1019500083B0084802F07AFD049B002B07D005A94C
:101960000191180002F080FD034802F06FFD012094
:10197000FFF7C8FF9C9A0010E4AC0010F8B5DE46F3
:1019800057464E464546E0B505000F0092460A9A76
:1019900093424ED31A0E91461E020A9A002330003B
:1019A000494601F059FD80466C006419A4002F4B94
:1019B0009C4664446368834200D260602B1FDBB2A4
:1019C0009B46012B3BD9C0239B012343802212015C
:1019D0001A60AB00264A9958002905D0506901F0D9
:1019E000F9FC01300138FDD153465A0123685A40B1
:1019F000E0231A4080235B0123431A605A46012AE0
:101A000028D980239B012343802212011A60434678
:101A10006360424600233000494601F01DFDAD00E1
:101A2000134B58510120F0BCBB46B246A946A04614
:101A3000F8BD104B104A2D211048FFF769FF012F08
:101A4000C1D1C0239B01234303221A60A368DB0793
:101A5000FCD5C9E72168794003220A401A60A268D0
:101A60000123BB401342FAD0CBE7C04600800040C0
:101A70003C0D0020AC9A0010049B0010C09A00108E
:101A800030B583B00C2000F027FBFEF779FD00286D
:101A90000DD0002304E099002D4A2E4888500133D0
:101AA000092BF8D92A4B2C4A5A6203B030BD2B4B74
:101AB00000229A6700F07EFB294B01221A60274B17
:101AC0005B6C012BFBD1274B03221A60234B9B6BD2
:101AD000012BFBD1022400940533234A0121234822
:101AE00000F06EFA00940523214A0121214800F0FC
:101AF00067FA214B0093002202210420FFF73EFFEA
:101B00001E4D00952B00002201210520FFF736FF16
:101B1000104C00942300002200210720FFF72EFF25
:101B200000942300002200210820FFF727FF0A4B22
:101B300000932300002200210920FFF71FFF0095DA
:101B40002B00002200210620FFF718FFADE7C0465A
:101B50003C0D0020006CDC021BB700000080004040
:101B60003CB0004030B00040002F68590080024077
:101B700000389C1C00C00240001BB700405973078E
:101B80008000014BC05870473C0D0020074B9B68FC
:101B9000103080001950BFF35F8FBFF35F8F044B8D
:101BA0000021196082F310887047C04600ED00E004
:101BB000240100D010B5091A04394808090B05D1D1
:101BC0004005400D044B184380B210BD034B044A3E
:101BD0008C210448FFF79CFE00E0FFFF149B0010DF
:101BE0001C9D0010249B001010B5091A04394C08E4
:101BF000090B08D14905490D064A11430180064BDE
:101C00002343438010BD054B054A94210548FFF747
:101C10007FFEC04600F0FFFF00F8FFFF149B00109E
:101C2000F09C0010249B001001238340034A10689D
:101C30001840431E9841C0B27047C04600E100E022
:101C4000002904D0034B1860034B18607047034B06
:101C50001860FBE780E200E000E100E080E100E0E6
:101C600010B5012383401800FFF7EAFF10BD000004
:101C700001238340014A13607047C04600E200E040
:101C8000024B9B6810308000C058704700ED00E0A8
:101C900070B504000D00EFF3108672B60C4B1B6894
:101CA000002BFBD0BFF35F8F2000FFF7E9FF094B4C
:101CB000984201D0A84205D1320029002000FFF748
:101CC00065FF70BD044B054A70210548FFF720FEF3
:101CD000240100D0CD010010609B0010389D001041
:101CE000249B0010F0B5CE46474680B583B0060071
:101CF0000D00EFF3108872B6574B1B68002BFBD01A
:101D0000BFF35F8F554B9A6834001034A300D75847
:101D1000534B9F4207D0AF4200D19BE00197514BFC
:101D2000FB1A2F2B09D9424639003000FFF72EFF4E
:101D300003B0C0BCB946B046F0BD3000FFF774FF39
:101D4000814600213000FFF78BFFBFF35F8FFEF766
:101D50008AFA002801D0844219D10123019C9C43B6
:101D6000230040495B1A5B4148495943090D49B278
:101D70000022A368AB4212D00622A256002A0DDB35
:101D800053009B189B002200364CE418F1E72021F9
:101D9000354B364AFF313648FFF7BAFD2200AB42D9
:101DA00051D106256557002D39DB6B005B199A0070
:101DB0002C4B9B189A68A260DA79E27106229A5637
:101DC000A2719B795BB2002B10DABD200002A080CB
:101DD0006B005B199B00234AD318264A117899712E
:101DE000157049463000FFF73BFF9CE7201D6B0054
:101DF0005B199B001B4A9B181A1D9B88D90A1C293A
:101E000007D15B055B15023359005118FFF7D2FE6D
:101E1000DDE7194B194A9A211548FFF779FD00288B
:101E20000CD1002A08D0FF239371154B9380114BDE
:101E30001A78A2711970D4E7094FF8E7201D1149EB
:101E4000FFF7D2FECDE7AA210F4B084A4900084808
:101E5000FFF75EFD024F66E7240100D000ED00E0D1
:101E6000CD010010C0050020749C0010089D0010DA
:101E7000249B0010BF2400205C9C0010289D0010B3
:101E800000BDFFFFFA050020989C0010AAAA0000E0
:101E900010B5032304009C43064A94466444226818
:101EA0001840C000FC3383409A43130081400B4329
:101EB000236010BD00E400E070B504000126064375
:101EC0002D4BF31A2F2B28D8FEF7CDF900282BD055
:101ED000EFF3108C72B6294B1B68002BFBD0BFF3BD
:101EE0005F8F2300244D5B1B5B412E4D5D432D0D09
:101EF0006DB2234B9B6880001B58B3421BD000225D
:101F0000032A32D853009B189B001B49CB189B799E
:101F10005BB2AB421FD00132F2E77221194B1A4A71
:101F2000FF311A48FFF7F4FCBA21194B164A490051
:101F30001648FFF7EDFC124B9B68164A1A50164BD9
:101F40001A78A2711D70BFF35F8F0C4B00221A60CC
:101F50008CF3108870BD080053009918890041184F
:101F6000FF268E710D4A8A80E9E786210C4B064ACE
:101F7000FF310648FFF7CCFCC0050020240100D04B
:101F800000ED00E0A09C0010D49C0010249B0010E9
:101F9000C89C0010CD010010BF24002000BDFFFF31
:101FA000E8990010AAAA000010B5002404E08021DE
:101FB0002000FFF76DFF01341F2CF8D910BD000081
:101FC000F0B5CE4600B504000E0091461F000C206F
:101FD00001F000FA050043011B1A9901C91AC90052
:101FE00009188901484601F0F5F90200103A9823D2
:101FF0005B009A4233D87B1E062B36D8069B013BEA
:10200000062B32D8069B9F4235D34B461A09AA426B
:1020100037D33F04069B1D032F432368002B36DB79
:10202000234B9C4241D080225201224B1A60224B0A
:102030001A60224B9B6811009943FAD12660A06078
:10204000231DC02292011A43212313602368002B11
:10205000FCDAE7600823136080BCB946F0BD184B7A
:10206000184A16211848FFF753FC184B154A192136
:102070001548FFF74DFC164B124A1F211248FFF777
:1020800047FC144B0F4A22210F48FFF741FC2268FE
:102090003F231340B342C3D1A3681B051B0D8342EA
:1020A000BED1E368002FBBD1D6E780229201BCE706
:1020B00000C0024000E0004000F0004000C00040CE
:1020C000549D00102C9E0010709D0010AC9D0010BF
:1020D000F89D0010109E001080239B000343014ACE
:1020E000D362704700800540024B1A68024B5A6069
:1020F0007047C046582200200080054010B50200FD
:10210000144B8020C0051860134B14481860002938
:102110001BD0134BE021C9041960002A00D13232D0
:1021200053019B1A9800801800010E4B1860802301
:102130005B04984202D30B4B0B4A1A60FFF7D4FFA3
:10214000074B8022D2051A6010BD024BE021C90462
:102150001960E2E700B0054008200140FCFF0100E3
:1021600000A0054058220020FFFFFF0010B503002B
:1021700010000C4A8024E4051460002B0DD00122CD
:102180001343094A094CD461094C5C401462516202
:1021900093620021FFF7B2FF10BD034B0022DA610A
:1021A000F7E7C04600B0054000800540D3C007B047
:1021B0002D3FF84F064BAA2212011A602F22DA6037
:1021C000044B054A1A60024B5B68002BFBDA704730
:1021D000004002400060024000B0FA00704710B5B5
:1021E000002802D00B684968984710BD0100002004
:1021F00007E083001B185B00501C08601078C018B3
:1022000030380A681378303BDBB2092BF1D97047BC
:10221000F0B5DE4657464E464546E0B583B0934698
:102220001F000C9B9A460D9C0E9B99460F9B9B078B
:1022300003D0B8460F00060022E00192A34688466C
:102240004E46B9460700B44207D2551C4B4641469C
:102250002020B84701342A00F5E73D004F465C4690
:10226000019B9B46B1464646B84637002E0007E024
:10227000013C551C5346185D43463900B0472A00BF
:10228000002CF5D135003E0047460F9B9B0707D435
:10229000100003B0F0BCBB46B246A946A046F0BD54
:1022A000B0464E46B9462F005D46531BB342EFD2AF
:1022B000541C4B4641462020B8472200F5E7F0B5B4
:1022C000CE46474680B585B0944698460C9D0D9CF9
:1022D0000EAB1B789946109A119B129EB7071CD41F
:1022E000002B0CD0F7070AD54F46002F02D10C3730
:1022F000374204D0013B02E030272F55013494428D
:1023000001D21F2CF8D9F70707D59C4205D21F2C04
:1023100003D830272F550134F5E7F70615D5770593
:1023200005D4002C03D0944224D09C4222D00F9A92
:10233000102A2BD00F9A102A30D00F9A022A35D0AB
:102340001F2C02D830222A5501341F2C05D84A46AA
:10235000002A31D02D222A5501340396029301948C
:10236000009543466246FFF753FF05B0C0BCB9462F
:10237000B046F0BD621E012C06D00F9F102F01D079
:102380001400D4E7023CD2E71400D0E7B206D1D45F
:102390001F2CCFD878222A550134D1E7B206CCD5EC
:1023A0001F2CCAD858222A550134C9E71F2CC7D878
:1023B00060322A550134C3E7720703D52B222A5510
:1023C0000134CAE73207C8D520222A550134C4E7B0
:1023D000F0B5DE4657464E464546E0B593B08146D9
:1023E0008A46089209931CAB10CB1B789B461E9D16
:1023F000219B9846002C03D1102342469A439046D5
:102400008023DB0046461E4042461A4212D0002C72
:1024100022D000260EE03033D9B2771C0AAB995592
:102420002900200000F0D6FFAC4216D31F2F14D88D
:102430003E0004002900200000F0CCFFCBB2092BA5
:10244000E9D94246920605D54121C918C9B20A39CF
:10245000C9B2E2E76121F8E7270043460693209BD3
:1024600005931F9B049303955B46029301970AAB68
:102470000093099B089A51464846FFF720FF13B086
:10248000F0BCBB46B246A946A046F0BDF0B5DE465C
:1024900057464E464546E0B595B0089009910A92D8
:1024A0000B931E9E1F9C20AB1B789B46229B99463C
:1024B000239D269B9A463300234303D11033524673
:1024C0009A4392468023DB0057461F4052461A42E9
:1024D00019D0330023432DD0002714E03033DAB273
:1024E0007B1C98460CABDA554A462B003000210085
:1024F00000F0B2FFA5421FD819D043461F2B1BD8AE
:10250000474606000C004A462B003000210000F030
:10251000A3FFD3B2092BE1D95246920605D5412239
:10252000D218D2B20A3AD2B2DAE76122F8E7B1455C
:10253000E3D901E00023984653460693259B059373
:10254000249B04934B4603935B46029343460193BB
:102550000CAB00930B9B0A9A09990898FFF7AFFE02
:1025600015B0F0BCBB46B246A946A046F0BD00007F
:10257000F0B5DE4657464E464546E0B591B0834637
:102580008A460C9298461A9C08941B9D0995220035
:102590002B002000290001F0ECF9002800D0E5E034
:1025A00001225242D74B2000290001F0DDF900281A
:1025B00000D0DBE001225242D34B2000290001F081
:1025C000BDF9002800D0D1E000220023089D28009A
:1025D000099E310001F0B2F9002800D0DDE0089832
:1025E0000999069007918023DB001E9A1A400D92EC
:1025F0001E9A1A4201D106231C93069807990400DB
:102600000D000A000600024300D1D1E0080D40058C
:10261000400DBE4CA44660440A03120BBC4B13434E
:102620001F0001F0B9F9BB4ABB4B01F044F9BB4AAA
:10263000BB4B01F019F904000D000022B94B30002A
:10264000390001F008F9B84AB84B01F034F902003A
:102650000B002000290001F007F901F0B5F98146CF
:1026600001F09AF904000D00B14AB24B01F023F9D0
:102670000022B14B01F0F8F801F0A6F90600AF4ACC
:10268000AF4B2000290001F016F904000D003000C6
:1026900001F082F9AB4AAC4B01F00DF902000B00DE
:1026A0002000290001F0D7F804000D0002000B0003
:1026B00001F001F90A900B91A44BF31800261F05B5
:1026C00022002B002000290001F0CEF80E900F917F
:1026D00022002B0000208021C90501F0BCF8040075
:1026E0000D0000229A4B0A980B9901F0C6F80022BF
:1026F000984B01F0B9F802000B000A980B9901F011
:10270000BCF80022944B01F0AFF802000B000A98CD
:102710000B9901F0B2F802000B002000290001F033
:10272000A3F802000B000E980F9901F0A6F8002202
:10273000774B01F099F832003B0001F0BCF806003D
:102740000F0004000D00069A079B01F00DF9002808
:1027500030D001235B429C46E14400227D4B300097
:10276000390001F08AF804000D0023E01E9B049359
:102770001D9B03931C9B0293089A099B0092019353
:1027800043460C9A5146584600F0FCF811B0F0BC94
:10279000BB46B246A946A046F0BD002300240693DE
:1027A0000794069580231B069C46664407961AE705
:1027B000002399464B466333C62B1ED804261E9B26
:1027C0001B0526D52B0023430FD0644A644B069883
:1027D000079901F0C1F8002879D00022614B0698D2
:1027E000079901F0ABF8002871D01C9B4B4506DD22
:1027F0004A46981A431E1C9303E00526DFE7002390
:102800001C938023DB001E9A1A431E92002600238D
:1028100099461D9B9E4264D29F1B02231E9A1A401A
:102820000A921E9A134202D0002E00D000274B4677
:10283000002B07D022002B000698079901F01DF805
:1028400006900791002200230898099901F076F874
:10285000002848D1444B1E9A1340049303971C9BB5
:102860000293069B079C0093019443460C9A5146A1
:10287000584600F087F8002E00D187E71E9B9B0684
:102880003DD54525441C4346020051462800D84703
:102890004B46DA179B18534005220592013E0496D9
:1028A000002203920A3202924A46D00F019000930E
:1028B0004346220051465846FFF78AFD0A9B002BEB
:1028C00000D163E702005F460C9E1D9D54E01C9BF7
:1028D000002B9ED00D9B002B9BD01C9B013B1C937F
:1028E00097E7002799E7069C079D22002900802092
:1028F0000006844661440B0006920793AAE765250B
:10290000C0E7C046FFFFEF7FFFFFEFFF01FCFFFFC7
:102910000000F03FFB799F501344D33FB3C8608B56
:10292000288AC63F0000F83F61436F63A787D23F04
:1029300071A379094F930A400000E03F1655B5BBDB
:10294000B16B0240EF39FAFE422EE63FFF03000072
:1029500000002C4000002440000018402D431CEBD8
:10296000E2361A3F80842E41FFF7FFFF541C434696
:1029700051462020B8472200931BAB42F6D31000EB
:1029800004E7C046F0B5DE4657464E464546E0B53C
:1029900095B00690079193469946209F1E9A1F9BDB
:1029A0001000190000F0E5FF002831D10122524249
:1029B000BF4B1E981F9900F0C1FF002837D101229C
:1029C0005242BC4B1E981F9900F0CEFF00283DD10B
:1029D0000022B94B1E981F9900F0C6FF002850D165
:1029E0000022B64B1E981F9900F0A8FF002848D17E
:1029F000002200231E981F9900F0A0FF002850D14C
:102A000000239846229B5B0500D4B6E0002458E0E2
:102A1000229B0393219B029303230193A84B0093D2
:102A20004B465A4607990698FFF7F2FB0EE1229BA8
:102A30000393219B029304230193A24B00934B46E3
:102A40005A4607990698FFF7E3FBFFE00423229A12
:102A50001A4022990B4210D09B4B002A0FD004221F
:102A60002299039121990291019200934B465A4673
:102A700007990698FFF7CCFBE8E0944BEDE70322BB
:102A8000EEE7229B0493219B039302971E9B1F9CBE
:102A9000009301944B465A4607990698FFF768FD44
:102AA000D4E01E9A1F9B0020002100F0D4FE1E904F
:102AB0001F9101239846A5E70CAB30221A55013F20
:102AC00001341F2C01D8092FF6D81E981F9900F049
:102AD0007BFF050000F060FF02000B001E981F99AD
:102AE00000F0B9FEFA007A4B9B181A685B680A92EC
:102AF0000B9300F0E0FE0890099100F089FF0600BA
:102B000000F046FF02000B000898099900F0A3FEB0
:102B10000890099100226F4B00F026FF00282ED06C
:102B20000136300000F034FF02000B000A980B99C8
:102B300000F00AFF002801D001350026002F2CD11B
:102B4000280000F029FF02000B001E981F9900F0DA
:102B500082FE06000F0000225E4B00F0EFFE002810
:102B600046D100225B4B3000390000F0FDFE00280A
:102B70003ED1EB073CD501353AE0062746E7002277
:102B8000544B0898099900F0D9FE0028D6D1002EA0
:102B900001D0F307D2D50136D0E7AA461F2C11D8B1
:102BA000013F0A21300000F015FC651C30310CABF0
:102BB00019550A21300000F00DFC092E0ED906002F
:102BC0002C00EBE755461F2C0CD87B1E002F09D09C
:102BD0000CAA302111551F000134F4E72B00554693
:102BE0001C00F0E71F2C03D80CAB2E221A55013421
:102BF0001F2C10D80A21280000F0C4FB661C3031BD
:102C00000CAB19550A21280000F0BCFB051E01D0B1
:102C10003400EDE734000323229A1340012B1CD02B
:102C20001F2C06D84346002B32D00CAB2D221A5550
:102C30000134229B0393219B029301940CAB0093DC
:102C40004B465A4607990698FFF7E2FA15B0F0BCD2
:102C5000BB46B246A946A046F0BD219B002B13D02F
:102C60004346002B02D10C3313420FD0219B013B72
:102C70002193190003E00CAB30221A5501348C4229
:102C8000CED21F2CF7D9CBE72199F8E72199F6E7A7
:102C9000229B5B0704D50CAB2B221A550134C8E7E5
:102CA000229B1B07C5D50CAB20221A550134C0E767
:102CB000FFFFEFFFFFFFEF7F65CDCD4165CDCDC1BC
:102CC000449E0010489E00103C9E0010389E00104C
:102CD00030A000100000E03FF0B5DE4657464E46FB
:102CE0004546E0B593B082468B4690461193002945
:102CF00000D1EBE200275546119B1878002800D13F
:102D0000E7E2252809D07C1C43463A005946A847EB
:102D1000119B013311932700EEE701331193002437
:102D2000119A11780B00203BD8B2102803D88300E9
:102D3000D048C3589F460B00303BDBB2092B2CD93F
:102D40002A292FD000230A93119B1A782E2A39D0D2
:102D500000239A46119A1378683BD9B2122976D883
:102D60008B00C549CB589F4601231C430132119269
:102D7000D6E702231C4301321192D1E704231C43FE
:102D800001321192CCE708231C4301321192C7E7AC
:102D900010231C4301321192C2E711A8FFF726FA53
:102DA0000A90D1E71C9B1A1D1C921868002804DBAE
:102DB0000A90119B01331193C6E702231C4343423F
:102DC0000A93F6E78022D20014435A1C11925A78D3
:102DD0001300303BDBB2092B04D92A2A07D0002389
:102DE0009A46B7E711A8FFF701FA8246B2E71C9BA3
:102DF0001A1D1C921868002804DB8246119B0133BF
:102E00001193A7E70020F8E780235B002343511CC0
:102E1000119152786C2A01D01C0018E0C0239B004D
:102E20001C430131119112E080232343511C119165
:102E30005278682A01D01C0009E0C0231C430131EC
:102E4000119104E080235B001C4301321192119B1D
:102E500018780300253BDAB2532A00D92CE29300FC
:102E6000864AD3589F4680239B001C43013211920F
:102E7000EDE780235B001C4301321192E7E77828DD
:102E800009D0582838D06F2838D0622838D010237D
:102E90009C430A2600E01026582833D0692803D026
:102EA000642801D00C229443630501D50122944388
:102EB00069282AD0642828D0A30500D59FE0E3051F
:102EC00000D5B8E0630600D4CAE01C9A111D1C911D
:102ED0001168FF220A4005940A9B0493534603930A
:102EE000029600230193009243463A005946280077
:102EF000FFF76EFA070027E01026CDE70826CBE79C
:102F00000226C9E720221443C8E7A30520D4E3051D
:102F100050D4630666D51C9A111D1C911168FF22BE
:102F20000A40D317D118594005940A9B049353467D
:102F300003930296D20F0192009143463A005946FC
:102F40002800FFF745FA0700119B01331193D3E6E0
:102F50001C9BDA1D07218A43110008311C9111685E
:102F600053689C46DB170C930D930C9A0D9B100035
:102F700048400E90624653400F930E980F990C9A5A
:102F80000D9B801A99410E900F9108940A9B07930C
:102F9000534606930496002305936346DA0F029284
:102FA0000090019143463A0059462800FFF76EFA17
:102FB0000700C9E71C9A111D1C911268D317D1187C
:102FC000594005940A9B0493534603930296D20FEB
:102FD0000192009143463A0059462800FFF7F8F95C
:102FE0000700B1E7230605D51C9A111D1C9100238B
:102FF000D25E96E71C9A111D1C91126891E71C9BEA
:10300000DA1D07218A43110008311C9108940A9B9C
:10301000079353460693049600230593029313687F
:1030200054680093019443463A0059462800FFF73C
:103030002DFA070088E71C9A111D1C9105940A9B24
:10304000049353460393029600230193136800935D
:1030500043463A0059462800FFF7BAF9070073E7DC
:1030600023060DD51C9A111D1C9112681204120C16
:1030700031E7C046509E0010949E0010E09E001064
:103080001C9A111D1C91126825E746281AD01C9B1A
:103090000733072293431A0008321C9204940A9AB9
:1030A0000392524602925C681B6800930194434667
:1030B0003A0059462800FFF765FC0700119B0133D1
:1030C000119319E620231C43E1E7672801D0472824
:1030D00002D180231B011C43452801D0472801D180
:1030E00020231C431C9B0733072293431A000832FA
:1030F0001C9204940A9A0392524602925C681B68DE
:103100000093019443463A0059462800FFF730FAED
:103110000700119B01331193EEE502231A002240B0
:10312000924623421FD001241C9B1A1D1C927A1C1C
:103130009146187843463A005946A8475346002B13
:1031400016D1119B013311934F46D5E5561C4346CA
:1031500059462020B847230032005C1C9D42F5D818
:103160003D001700E0E701233A002F000A9DF4E735
:103170004A46A9460A9D06E0571C43465946202068
:10318000C84734003A00661CA542F5D84D46914622
:10319000D7E71C9B1A1D1C921B6899465346002BAF
:1031A00000D1013B4E4601E0013613003278002A7F
:1031B00002D05A1E002BF7D14B46F21A10928023F0
:1031C000DB0026001E401C4203D0524501D9534665
:1031D000109302231A0022400B92234205D03A009A
:1031E00037004C46A946554620E03A00109B5F4602
:1031F000B3462E0006E0551C434639002020B04758
:1032000023002A005C1C0A999942F4D835005E46D6
:10321000BB46109437004C46A946554606E01D00B3
:103220000134561C43465946C847320020780028CE
:1032300004D0002FF4D06B1E002DF0D117004D46A6
:103240000B9B002B03D1119B0133119354E50A9F73
:10325000109B06E0561C434659462020A8472300F1
:1032600032005C1C9F42F5D81700ECE721231C4379
:103270001C9B1A1D1C921B68009305940823049341
:1032800053460393102302930023019343463A00CD
:1032900059462800FFF79CF80700119B0133119352
:1032A0002AE57C1C43463A0059462520A847119B35
:1032B0000133119327001FE57C1C43463A00594611
:1032C000A847119B01331193270015E50A4B9A4635
:1032D00010E5AA46474502D343465A1E00E03A008D
:1032E000434659460020D047380013B0F0BCBB46D7
:1032F000B246A946A046F0BDDD21001000B585B05C
:10330000029003910121009313004A4202A902484E
:10331000FFF7E2FC05B000BDDF21001001480421E9
:10332000014B1847100600204D33001010B5010066
:1033300018231B8814221088984710BD10B501006F
:1033400018231B8816221088984710BDF0B5C64672
:1033500000B507000E0000250123984600E0013566
:10336000B5420AD2AC003C192068FFF7DFFF2060AD
:103370000028F4D100239846F1E7404680BCB846C7
:10338000F0BD0000124A936F9B0815D29066D1667B
:10339000002905D0FFE7FFE7FFE7516F106F704787
:1033A00004B580210906C2175140002800D0C84347
:1033B00005F086FF002104BDF0B5146E556E576F01
:1033C000166FFFF7E3FF1466556657671667F0BD83
:1033D000000000D0114A936F9B0813D2106651660B
:1033E000002905D0FFE7FFE7FFE7516F106F704737
:1033F00004B5002801D00020C04305F061FF002182
:1034000004BDC046F0B5146E556E576F166FFFF7CA
:10341000E5FF1466556657671667F0BD000000D0DB
:1034200094464E4A926F9208624601D230E0C046FE
:10343000F0B54A4EB56F6D08FCD3346E756E776F7C
:10344000366F00F025F89446444A1466556657676F
:1034500016676246F0BDC0469446404A926F920895
:10346000624601D258E0C046F0B53C4EB56F6D08DB
:10347000FCD3346E756E776F366F00F04DF894465E
:10348000364A14665566576716676246F0BDC046F1
:10349000002B24DB11D000293EDA00B5C94340429D
:1034A00000D1013100F038F8C943404200D1013168
:1034B000DB43524200D1013300BD002AEBD100288A
:1034C00001D1002905D00020C90FC90701D1C0438F
:1034D000410800B505F0ECFE0022002300BD00B558
:1034E00000290ADBDB43524200D1013300F014F81B
:1034F000C943404200D1013100BDC943404200D11F
:103500000131DB43524200D1013300F005F8DB43C7
:10351000524200D1013300BD002923D1002B18D124
:10352000002A0CD0BC460D4F38667A660021002375
:10353000FFE7FFE7FFE77A6F386F674670470028BD
:1035400001D00748010000B505F0B2FE00220023BB
:1035500000BD02000B00002000217047000000D0D9
:10356000FFFFFFFF002B00D0BDE0130C26D1002A87
:10357000E7D080B4104F39667A66FFE7FFE730B4D2
:10358000040C7B6F396F1B0423433B66FFE7FFE7A7
:10359000FFE7C04684B27B6F3D6F1B0423433B664D
:1035A000FFE7FFE7C04600232C042D0C7A6F386F2D
:1035B00000196941B0BC7047000000D0F0B59446D6
:1035C0000025140E01D112020835140F01D1120189
:1035D0000435940F01D192000235D40F01D152006D
:1035E0000135D40B0134254F7C66254C3C660E0C0E
:1035F00093B2FFE7FFE7FFE73C6F6643360C7703C4
:10360000BE467343DF0B5B04C01AB941130C73430E
:10361000DB18C91ACE086643360CB64493B273431E
:103620001F0F1B01C01AB941130C73431F0B1B055D
:10363000C01AB941860D8F023E436643360C092DF0
:1036400024DB520A7243801A7703460A6643360C1B
:1036500016235B1BDE40DF40BF1964466643821BB6
:103660007046043506330100D940A840C01900D384
:103670000131A24206D20023F0BD0000000000D0BC
:10368000FFFFFFFF121B0130F3D3F1E709277F1B78
:10369000FE406446A2B27243801A00D20139220C65
:1036A0007243130C1204821A99410B0070460435C0
:1036B00013370100F940A840801900D30131002BD5
:1036C00002D1A2420AD2F0BD013000D30131121B57
:1036D000FAD2013BF8D1A24200D2F0BD013000D3B2
:1036E0000131121BF7E7F0B51C0C00D080E00CB4E0
:1036F00000251C0A04D11B02160E334312020835A2
:103700001C0B04D11B01160F3343120104359C0B13
:1037100004D19B00960F334392000235DC0B02D19B
:1037200092185B4101351C00971864410134464FE3
:103730007C66464C3C660E0CFFE7FFE7FFE7C046A1
:103740003C6F6643360C7703BE4697B27743C01B87
:1037500000D20139C01B00D201399FB27743C91B87
:10376000C91B170C77437E04FF0B801BB941CE08A1
:103770006643360C0C2D33DBB644120B1F053A435F
:103780001B0B97B27743C01B00D201399FB277431E
:10379000C91B170C77433E043F0C801BB941860DB3
:1037A0008F023E43664329277F1BFE400C3D774630
:1037B000AF40BF1930BCA2B2ABB272437343801AA0
:1037C0009941220C7243130C1204801A9941020091
:1037D0000B000137001BA941F9D2781E0021F0BD72
:1037E0000C277F1BFE4077467F0BAF40FF19E0E7B9
:1037F00000245D1C07D0144F7D663966FFE7FFE7A4
:10380000FFE7FFE73C6F95B29EB265436643401BFE
:10381000B141150C1E0C6543664336042F0C3E4324
:103820002D04401BB141994204D202000B0020003C
:103830000021F0BD01D19042F7D3801A99410134A3
:103840009942F2D3F6E70000000000D0FFFFFFFF2F
:1038500048404140484018B41B4B5B68FC4601930C
:1038600008BD04DF1B3B001018B4174B1B68FC4657
:10387000019308BD00DF253B00109446134A926F68
:10388000920809D2624618B40F4BDB68FC460193DC
:1038900008BD0CDFDD3D00100C4AF0B5146E556E0E
:1038A000576F166F6246FFF7EEFF084A14665566BB
:1038B00057671667F0BD18B4034B9B68FC4601932D
:1038C00008BD08DF813C001078220020000000D0F5
:1038D000FFB550404240504059404B40594000E0F5
:1038E000FFB5154F4C00640D03D0BC4204D10C034E
:1038F00014D80020090D09055C00640D03D0BC42FA
:1039000004D11C030AD800221B0D1B0501264B40C5
:1039100009D44B4003D58B4200D18242FFBD99426E
:10392000FCD19042FFBD0B43DB1803431343F5D09A
:10393000C9434918FFBD0000FF07000000B5FFF7AD
:10394000CFFF804100BDC04600B5FFF7C9FF01D9D8
:10395000002000BD012000BD00B5FFF7B9FF01D96F
:10396000002000BD012000BD00B5FFF7B1FF804180
:1039700000BD012040054A00121804D85A00121850
:1039800001D80020704701207047002070470000D8
:103990000021002805D17047C1174840401AFAD0CD
:1039A000C90713B5064B1B6898470CBC441CA240C2
:1039B0001005120B0349091B09051943114310BDDA
:1039C000782300201F04000010B54C00620D8023F6
:1039D000D218DB00D21A5B057E2A10DD9E3A13DA7C
:1039E000CC170903490819435242D14064000134FD
:1039F0001532202A05DAD0400843604310BD00206C
:103A000010BD0846604310BDC80FC018013810BD76
:103A100018B4044B5B6AFC46019308BD24DF0940DF
:103A2000001000007822002070B513231C78012CB0
:103A30000FD0012C0FDC022C02DC1D4A1D4B9A64B6
:103A400070BD99001A481B4A885001331F2BF8D9C2
:103A5000EFE70023FAE71848FFF770FC0500174866
:103A6000FFF76CFC023803789B007F2B19DD802266
:103A70002900104800F0E4FB022CDCD1104B1A881E
:103A8000B5231B029A4209D10E4B1A880E4B9A425B
:103A900004D10E4B1A880E4B9A42CCD00020FDF771
:103AA00055FF0C4B0C4A30210C48FDF731FFC04646
:103AB000E13A0010782200205344000053460000F1
:103AC00054380000D8380000494600009C380000F7
:103AD0005946000080A0001028A10010E0A00010AE
:103AE00007B56046002800D100BE01880A0A0230EE
:103AF000DF2AFAD1C9B2820804D3028840880004C0
:103B0000104300E00068024A5050039007BD0000D7
:103B1000782200200FB403BC0CBCF0B50124E407EC
:103B2000634000E0F0B50C0DCF0F661E3605891B13
:103B3000640503D3C943404200D30131640D03D06F
:103B4000661CF60A07D0E41B00207F00791C890759
:103B50008912803C24031D0DDF0F6E1E36059B1B52
:103B60006D0503D3DB43524200D301336D0D03D007
:103B70006E1CF60A07D0ED1B00227F007B1C9B0702
:103B80009B12803D2D032F1B661B58D4A446202E6C
:103B900046DA20371400BC401D00BD40F2403341DE
:103BA0002A4380185941CB0F05D0C943C043002296
:103BB00064425041514162464D0D28D10D0D07D14F
:103BC00000281FD0241940414941013A0D0DF9D078
:103BD000640006D3013000D30131002C01D140082C
:103BE0004000013A0BD4941CE40A04D1120511449C
:103BF000DB071944F0BDD907204B194300E0D90772
:103C00000020F0BD0029DDD1002CDBD1F0BD013258
:103C1000C6074008CD0728434908002EE1D0D9E760
:103C20003C2E29DA203E40371400BC4000D001244D
:103C3000F24014431A00BB401C43D317ACE7AC4618
:103C4000202F08DA20360400B4400D00B540F840BB
:103C500039412843A5E73C2F0CDA203F40360400C9
:103C6000B44000D00124F84004430800B1400C43A4
:103C7000C117EAE710001900002494E70000F07F64
:103C8000F0B50C0D661E3605891BE60A6405640D49
:103C900002D0651CED0A04D0002001210905803CFA
:103CA0002403A4461C0D671E3F05DB1BE70A6405C1
:103CB000640D02D0651CED0A04D0002201231B050F
:103CC000803C24037740644497B484B296B2744332
:103CD000070C7E43150C6F4380B26843361802D33D
:103CE000012000043F183004350C00197D41844642
:103CF00088B29AB250430C0C62431F0C7C438EB2C4
:103D00007E43921902D301263604A4191604170C17
:103D10003618674101BC81B29AB25143040C624328
:103D20001B0C5C4380B25843121802D301200004DC
:103D300024181004130C401863412D185E41002014
:103D4000474106BC88B293B258430C0C6343120C33
:103D5000544389B251435B1802D30121090464180A
:103D600019041A0C091862416D1856410020474188
:103D700018BCF902720D1143F0026A0D1043ED02F6
:103D80000A0D03D16D1940414941013B124E9B1B65
:103D90007600B3420ED26D0007D301300026714188
:103DA0006646354301D1400840001B05C918E407A9
:103DB0002144F0BD0BDA013306D1013004D10131C9
:103DC0004F0D01D04908F2E7E1070020F0BD0136B0
:103DD00031050020EBE70000FF030000F0B51C0DEB
:103DE000671E3F05DB1BE70A6405640D02D0661CF5
:103DF000F60A04D0002201231B05803C2403D025B1
:103E00002D060026F6432E661E096E66CE0FF619A5
:103E1000B44649004F0D02D07E1CF60A03D00020A4
:103E20000021403F3F033E1BB600B444013F7F05E5
:103E3000C91B49082E6F013676089C02950D254353
:103E40007543ED137543AD1301356D10F603761B05
:103E50000CB4CC02450D2C43A2B2B3B25A43270C8A
:103E60007B43350C6F43A4B26C431B1902D301246E
:103E700024043F191C041D0CA4187D4124196D4114
:103E8000009A91B2ACB26143170C7C432B0C5F4398
:103E900092B25A43A41802D301221204BF1822047A
:103EA000230C52187B41019C6C431B19520ED90103
:103EB0000A434401A01A81B2B2B2514303145A43D7
:103EC000360C734387B27743D617D21900277E4149
:103ED00036049B191704160C7F185E417316ED18F3
:103EE000F301002680337541A90F06D16400690AE9
:103EF000E8055B0A184309D22FE00422944480337A
:103F00007541A90AA8059B0A184326D34041494197
:103F10002404009A019B0D005543641B4343E41A9B
:103F200095B286B27543170C7E43030C5F4392B281
:103F30005A43B61802D301221204BF183204330CBC
:103F400052197B4152429C41002C02D40022013084
:103F500051414008CA071043490802B06246D707DA
:103F60009210084BD218084B9A4203D212058918B6
:103F7000C919F0BD0020002A01DC3900F0BD013371
:103F80001905F5E7FD030000FE070000624618CAA8
:103F9000944600291ADAC01861415B463B415C46F1
:103FA000B4405246FA40224344464D4662416B417A
:103FB000904699462B46B3403D41FC401C43524637
:103FC0005B46A241AB4192469B467047C01AA14155
:103FD0004B463B414C46B4404246FA40224354468D
:103FE0005D4662416B4192469B462B46B3403D4144
:103FF000FC401C4342464B46A241AB419046994689
:104000007047002000217047002200B5203200F0E8
:1040100004F8080000BD000000220B15F1D410B513
:10402000944600F02FF81414013400DA0021CB1765
:10403000134C20476244343A0CD40C2A07DA0400AB
:104040009140904052422032D440214310BDD84389
:10405000D94310BD203207D40C469440524220323E
:104060001141D040204310BD0800C917203203D4AD
:1040700052422032104110BD1800190010BD00003E
:10408000354000100A0DCC0F531E1B05C91A5205EE
:1040900003D3C943404200D30131520D03D0531C16
:1040A000DB0A07D0121B00206400611C89078912FB
:1040B000803A1203014BD21A70470000FF03000040
:1040C00051434343C9188C46110C83B24B4310B47F
:1040D000040C614392B280B2504362431C041B0C37
:1040E000001910BC59411304120CC018514161440D
:1040F0007047000070B513231D782A48FFF71EF99A
:104100000400012D11D0012D09DDA31E1B789B0099
:104110007F2B40DD80222100234800F091F82348C6
:10412000FFF704F9224B186070BD542201001E48AD
:1041300000F086F81F4B1A881F4B9A421CD1A72308
:104140009B011A881D4B9A4216D11D4B1A881D4B94
:104150009A4211D11C4B1A8894239B019A420BD18D
:104160001A4B1A881A4B9A4206D11A4B1A681A4BE4
:104170009A4201D1152307E01848FDF7E7FB9900A3
:104180001748094A885001331F2BF8D9144A064BA7
:104190001A62DA61B7E7134B134A42211348FDF75D
:1041A000B7FBC046534600007C2300204C33000080
:1041B00078230020EE290000C40F0000C20D00008B
:1041C000962B0000C0B50000182B0000CC2A000080
:1041D00010B50000FC2C000051ED8764DCAB001032
:1041E000F14100103CA10010B8A1001070A1001016
:1041F00007B56046002800D100BE01880A0A0230D7
:10420000DF2AFAD1C9B2820804D3028840880004A8
:10421000104300E00068024A5050039007BD0000C0
:104220007C23002001480421014B18472006002070
:104230004D330010014B1B6818470000200600207A
:10424000014B5B681847000020060020F8B5070006
:104250000D001600437C002B02D0002400200CE04F
:1042600003681100280098472DE03B7C10E00221F4
:1042700015483B689847601C0134B44214DA002C9E
:10428000F3DD2B19013B1B780D3B5A425341DBB246
:104290002A5D0A2AF0D1002BEED1A042E7DA211ADA
:1042A00028183B689847E2E7B04203DA311A281829
:1042B0003B689847002E06DDAD19013D2B780D3B7C
:1042C0005A4253413B74F8BD30A2001070B505004E
:1042D0000368002B16D00C4B1C6805E0290004C9AC
:1042E0002000FFF7B3FFE468002C09D02368002BFF
:1042F000F9D0064B1B68002BF0D0A342F3D1EDE7B9
:1043000000232B6070BDC046CC0D0020D00D0020D6
:1043100070B505000C000B68802B05D021684B1C84
:1043200023606418257170BD0800FFF7CFFFF5E723
:1043300010B582B0D0231B0600241C5701A90748E2
:1043400004F0C6FF002806D1019B9C4203D003481D
:1043500004F0D6FF012002B010BDC046A006002028
:1043600010B5024804F09CFF10BDC046A006002016
:10437000F0B5C64600B582B006000D001700FFF785
:10438000D7FF80466B1C02D0184B1C6805E030003C
:1043900004F00AFF0500F7E7E468002C18D0236852
:1043A000002BF9D0124B1B68002B01D0A342F3D194
:1043B0002A0031002000FFF749FF002FECD06B46A8
:1043C000D91D0A230B7001222000FFF73FFFE3E70E
:1043D0004346002B06D16B1E9D41E8B202B080BC63
:1043E000B846F0BDFFF7BCFFF5E7C046CC0D002096
:1043F000D00D00200C4B1A68130001E01A00DB6896
:10440000002B08D08342F9D1002903D1DB68D360A7
:104410000023C36070470029FCD0002A01D0D0607F
:10442000F8E7014B1860F5E7CC0D002010B5064BFE
:104430001C6801E09847E468002C03D06368002BF7
:10444000F8D1F8E710BDC046CC0D002070B50500CE
:1044500004F0AAFE0400012201002800FFF788FFF3
:10446000FFF7E4FF200070BD70B5A2B004000E009D
:10447000FFF75EFF05008422002101A8FFF7DAFEA6
:104480003300220001A90848FEF738FF040001A804
:10449000FFF71CFFFFF7CAFF002D02D1200022B05A
:1044A00070BDFFF75DFFF9E7114300100FB400B5D1
:1044B00083B004A901C90191FFF7D6FF03B008BC7E
:1044C00004B0184710B500F033F910BD7047000074
:1044D000014B00221A707047C02400204B79FF2B3B
:1044E0000CD18B79002B0BD1CB79012B0AD1082A67
:1044F0000AD98A78054B1A70092000E0002070471D
:104500000020FCE70020FAE70020F8E7C0240020A4
:104510000120704770B504000D000348FEF706FF48
:1045200003002900200098475542000010B50029DB
:1045300026D1117953791B020B43124909788B421A
:1045400001D0002010BD5378012B03D0022B10D0D6
:104550000020F7E79178D3781B021943DB0503D5D8
:104560004B0A0120984000E000207F231940FFF70C
:10457000D1FF642200210020FDF7F8FD0120E1E7D2
:104580000120DFE7C02400200123037000487047AA
:1045900034A2001010B50B784878000218438A78CE
:1045A00012041043CB781B0603439622D200934299
:1045B00000D010BD00210800FFF7ACFF30B583B07C
:1045C00005000C0001A9184804F082FE002808D15B
:1045D000D0231B061B68019A9A4221D0124804F08E
:1045E0008FFE002001F07CFE002807D103246442E6
:1045F0000D4804F055FE200003B030BD002001F04E
:1046000091FE002802D103246442F1E72200290030
:10461000002001F093FE041EEAD103246442E7E780
:1046200003246442E7E7C0468C24002010B5002133
:10463000054804F04DFE002800D110BD01F0F2FB4A
:10464000014804F02DFEF8E78C240020F0B5C646A2
:1046500000B582B080460D0001A92E4804F038FE56
:10466000002808D1D0231B061B68019A9A420FD05C
:10467000284804F045FE002001F032FE002847D112
:10468000254B0020002118605960224804F008FEE4
:1046900002B080BCB846F0BD01F0C4FB002001F0C0
:1046A00061FE002001F01CFE0028EED0002001F089
:1046B000DBFE00281DD0AC42E7DA2E1B002001F003
:1046C000D3FE0200864200DC3200002AE4D04346DA
:1046D0001919002001F0ACFE060001F0A3FB002038
:1046E00001F040FEA419FCF75FFD0B4B1860596008
:1046F000E1E7FCF759FD084B1E685F68074A002395
:1047000092197B419942C0D8D5D19042D3D9BCE708
:104710000024D0E78C240020C007002020A107003F
:1047200010B51F20FDF7A4FAFA208000002110BD6B
:1047300070B584B0244B1B7802F0E6F823491F20A3
:10474000FDF7A6FA01211F20FDF78AFA2048FCF7A1
:104750003EFEFCF79FFA0600FCF726FD04000D1E46
:1047600020DBFA229200002312196B41994202D8F1
:1047700004D1904202D901225242D317002B17DBF9
:104780000121029100210191124900913000FCF7B2
:1047900097FA0400631E9C41E4B200280ED1200069
:1047A00004B070BD0C4B0D4A3D210D48FDF7B0F82B
:1047B000094B0A4A3D210A48FDF7AAF80121094898
:1047C000FFF718FEEBE7C04630AD00102D46001095
:1047D0008C24002021470010549500106CA200107A
:1047E00070950010300600200048704704A30010A8
:1047F00000487047B0A2001010B50400144B1B789D
:10480000002B0DD0002C10D1124B134A5A800123DB
:1048100001335B00C022920013430E48038010BD99
:1048200011210B4802F0DCFBECE7052C0ED8A400AC
:104830000A4BE4580023122BEAD8E25C002AE7D0A6
:104840000133590003484252DBB2F4E70020E6E7A7
:10485000A4240020A40D00200904000018A30010C7
:1048600002007F201040D209400080184001014B17
:10487000C0187047581E002010B582B001AB084A1E
:104880001A80002408E001AB185DFFF7E9FF01235F
:10489000C370002303740134012CF4D902B010BD9D
:1048A0000080FFFF10B5828B131C402A00D94023E3
:1048B0009BB216490A68C260D3180B60990604D0EF
:1048C0003F218B43403311490B60104B19688B0615
:1048D0000FD10F4B5A404B40802149018B420ED8DB
:1048E000837F9B061A43A0231B061A4343681A6062
:1048F00010BD084B084A52210848FDF709F8084B3B
:10490000054A54210548FDF703F8C0465C22002003
:104910000000105030A3001088A4001060A3001005
:10492000B4A30010F8B504007F2630000840CD097C
:10493000A1706F426F4167700E421AD10121E17080
:10494000012B18D0402A1ED8A283A377012D1ED098
:10495000C3001D4A94466344A360A36800221A6002
:1049600000281AD100236360184BE36001232370F1
:10497000F8BD0021E3E78021C9008A42E4D3110099
:104980001348FCF7E3FF11001148FCF7DFFFC300F9
:10499000104A94466344A360DFE7012D0CD0013830
:1049A000C0000D4B9C46604460602378002BDDD135
:1049B0002000FFF777FFD9E70138C000074B9C467E
:1049C00060446060F1E7C046840010500001105060
:1049D000E8A30010800010500C0010500800105088
:1049E00070B504000D001600FFF73AFF33002A00EF
:1049F0002100FFF797FF70BDF0B5CE46474680B562
:104A000083B0244B9B6D9846002601250AE0224B7B
:104A1000224ADA212248FCF77BFF4346AB43984603
:104A20006D0001364346002B2ED01F2E2CD8434656
:104A30001D42F5D0174BDB6D1D42E8D1194B9D652A
:104A400072080123334059424B41D9B28946FF27AE
:104A500017407C001C196401134BE418200000F07F
:104A6000C5FA0028D9D07F004F447F010E4BDF19D3
:104A7000BA8AB978012300930023002000F046FE93
:104A8000200000F0FDF9C8E703B0C0BCB946B0464D
:104A9000F0BDC0460000115010A400109CA40010EE
:104AA00060A3001000301150581E002070B5254A38
:104AB0009823D45880235B0225001D401C4213D14B
:104AC000E3061FD4A3040AD580239B011D431D4B7D
:104AD0001B6DDB031BD51C4B802252021A65E304BD
:104AE0001BD4A54229D170BDFFF7C6FE012217498C
:104AF000002000F0F1FD144B802292021A658025FF
:104B00006D02DDE710231D43FFF776FFDAE7012290
:104B10000221002000F0B8FDDDE70A4B00221A60F8
:104B200080235B011D4301320021002000F0BFFD06
:104B3000054B802212031A65D3E72900614004481F
:104B4000FCF704FF0000115000301150000010501D
:104B50001CA4001070B50C0015001E00FFF780FEAD
:104B600033002A00210000F071FA70BD10B5FFF784
:104B700083FE0123002200218020FFF7EBFF10BD00
:104B800010B50400037C002B11D183785A0605D19F
:104B9000DB09012B12D00222094B9A6680221201F6
:104BA0000849200000F074F90123237410BD04218A
:104BB000054B064AFF310648FCF7AAFE0122EBE747
:104BC00000201150FFF7FFFF30A4001064A4001074
:104BD00060A3001010B5FFF743FEFFF7D1FF10BD33
:104BE00010B5040083785A0605D1DB09012B0AD0E1
:104BF0000222064B9A6600220549200000F048F97F
:104C00000023237410BD0122F3E7C0460030115089
:104C1000FFF7FFFF10B5FFF723FEFFF7E1FF10BD21
:104C200010B5002804D101210520FDF719F810BDA9
:104C3000AA21034B034AFF310348FCF769FEC04633
:104C400040A4001078A4001060A3001010B5002844
:104C500002D1FFF78BFF10BDDB21034B034A490054
:104C60000348FCF755FEC04640A4001018A50010EC
:104C700060A3001010B5002804D1064B8022520218
:104C8000DA6410BDD021044B044AFF310448FCF71C
:104C90003FFEC0460020115040A400100CA500109B
:104CA00060A3001010B5041E25D100F0C1F815490D
:104CB0000520FCF7EDFF8022D20000211248FFF70B
:104CC000B9FA124B124A1A60002240210020FFF765
:104CD00087FE002240218020FFF782FE0D4B01223B
:104CE0001A6480229205DA6490220B4999502000C0
:104CF000FFF7C0FF10BDC521084B094A490009480C
:104D0000FCF706FEAD4A0010581E00205C22002071
:104D100080011050000011501030010040A400101C
:104D2000B4A4001060A3001010B5002808D10B78BF
:104D30005B0602D14B78052B09D0FFF79DFD10BD16
:104D4000ED21054B054A49000548FCF7E1FD8A784D
:104D5000044B1A60F1E7C04640A40010F0A4001014
:104D600060A300100000115010B50C0000280DD1F8
:104D70000A794B790721194009021143E278920719
:104D8000920FA078FFF72CFE012010BDF521034BF8
:104D9000034A49000348FCF7BBFDC04640A400108D
:104DA000E0A4001060A3001010B50400080011007A
:104DB0001A00002C04D10123FFF7CCFE012010BD06
:104DC000F221034B034AFF310348FCF7A1FDC04623
:104DD00040A40010D0A4001060A3001010B500285B
:104DE00003D10800FFF7F6FE10BDFD21024B034A78
:104DF00049000348FCF78CFD40A40010C0A400103B
:104E000060A3001010B5002803D10800FFF702FFCF
:104E100010BD034B034A04490448FCF779FDC04622
:104E200040A400104CA400100102000060A3001078
:104E300010B580235B040D4A13600D4A13600D4BBF
:104E40009A6880235B049343F9D10B4C9C22002188
:104E50002000FFF7EFF98022520100210748FFF7F9
:104E6000E9F9092363670333A36710BD00E000403D
:104E700000F0004000C00040000011500000105041
:104E800000230374437443828382C3828361704727
:104E900010B5002902D083681B681940002A0FD082
:104EA000114353050CD5826813685B050BD40B4B7B
:104EB0000B401360FFE7FFE7FFE7FFE7FFE7FFE7D0
:104EC0008368196010BD83787F211940DB099B003E
:104ED000034A9A580348FCF739FDC046FFFBFFFF21
:104EE0004406002028A5001070B50400C58A802261
:104EF000D2002A434378002B0DD0E378002B16D044
:104F0000802189010A4301214B40E37000212000E8
:104F1000FFF7BEFF70BD818A83699C4661442A0009
:104F2000C068FFF78DF9034A2A4392B2E5E70021F2
:104F3000E8E7C0460084FFFF70B504000E001500CE
:104F4000437C002B14D165820023A382A28B131C07
:104F50003F2A00D840232A1C99B28D4200D91A1C3E
:104F6000E28201236374A6612000FFF7BDFF70BDDC
:104F7000FFF786FFE7E7000070B5040083681B6851
:104F80009D05AD0D4278002A13D11B040BD4838AF2
:104F9000EB1883826378002B04D0E38AAB4201D9FB
:104FA000A38A638270BD0D4B0D4AEA210D48FCF7C0
:104FB000AFFC1B040BD5808AA3699C4660442A0081
:104FC000E168FFF73DF9A38AEB18A382E2E7064BFD
:104FD000034AF4210348FCF79BFCC04648A5001097
:104FE00058A6001068A50010BCA50010F8B5040074
:104FF000457C002D19D0FFF7BFFF618AA28A8B1A6A
:105000009BB2A08B061C3F2800D84026181CB7B2C4
:10501000BB4200D9301CE08291420DD303D0200066
:10502000FFF762FF00252800F8BD81787F23194033
:10503000034A0448FCF78AFC0348FCF787FCC04697
:1050400044060020DCA5001008A6001010B5047866
:10505000002C04D0002B09D0FFF76EFF10BD3A21C1
:10506000044B054AFF310548FCF752FCFFF7BEFF31
:10507000F4E7C0462CA6001044A6001068A5001056
:1050800070B5002503E00E787519ADB28919954207
:105090000AD24C78052CF6D18E787A3434406400EC
:1050A0000419F609A355EEE770BD000070B50500C0
:1050B0001B4C372200212000FFF7BCF8E01C102217
:1050C000FF21FFF7B7F8200013301222FF21FFF76E
:1050D000B1F801F045F800240EE063001B19DA0076
:1050E000104B1B689B1802E0230010E000235B6854
:1050F000280098470134E4B20B4B1B78A3420ED32F
:105100000A4A002AF0D0A342E7D8E31ADBB2002B08
:10511000ECD15A00D218D200054B9B18E7E770BDBE
:10512000240B0020EC070020BB2400208945001040
:10513000A8A7001070B505000C001600C86801F0A3
:1051400019F8E368320000212800984770BD00007C
:10515000F0B5D6464F464646C0B580460139C8B27E
:10516000FFF746FB002802D04378022B0AD0604AA2
:1051700060496148FFF79AF90020E0BCBA46B146A1
:10518000A846F0BDC5796A1101235C4C1A40110193
:1051900022781026B2430A432270AD112B405B01E6
:1051A000D2B220218A431343237006000936817846
:1051B000C3781B020B4382469A4478E03378B146A9
:1051C000F6187BE04E4A4B494B48FFF76FF9002039
:1051D000D3E763001B19DA004A4B1B689B1802E0F7
:1051E000230014E000239B683A00310040469847B2
:1051F000051E14D10134E4B2434B1B78A34252D3B1
:10520000424A002AECD0A342E3D8E31ADBB2002BD7
:10521000E8D15A00D218D2003D4B9B18E3E708288A
:1052200023D9874221D3B278344B9B18DB78FF2BEC
:1052300022D1324B9B18DC704B46002B2BD09A7836
:10524000B3789A4220D14B461A7973799A421BD18E
:1052500001234A46D2789A421DD9B1785918274A73
:105260005218D4700133DBB2F3E72A4A21492248AD
:10527000FFF71CF9002080E7D82292001D491E4844
:10528000FFF714F9002078E7234A1A491A48FFF774
:105290000DF9002071E7194823002A00310013306E
:1052A000FFF7EEFE7619184B1B78A3420FD3564535
:1052B00014D273780B2B81D0002399467378042B7A
:1052C00000D07FE753469F1BBFB2002494E7134AE8
:1052D00008490948FFF7EAF800204EE7104B002B79
:1052E00003D000E000BF012047E7012045E7C046AA
:1052F0003A03000070A7001070A60010240B0020D5
:105300004F030000EC070020BB240020894500105B
:10531000A8A700105D030000690300007B030000E4
:1053200000000000F0B583B005000C00CB78887851
:105330000F2B5DD89B00324AD3589F46FFF754FA93
:10534000020012232100280000F0B6FE51E02D4B90
:10535000002B10D000E000BF06006B469F1D811C93
:1053600002223800FEF76CFF3B8832002100280043
:1053700000F0A2FE3DE000203BE0FFF739FA061EF8
:105380000DD06B469F1D811C02223800FEF758FF8E
:105390003B8832002100280000F08EFE29E01A4AE6
:1053A0001A491B48FFF782F8002022E00B7949795F
:1053B00009021943FFF720FA021E1CD003782100CE
:1053C000280000F079FE14E0124B002B15D000E00D
:1053D00000BF021E05D003782100280000F06CFEFB
:1053E00007E00D4A09490A48FFF760F8002000E08D
:1053F000002003B0F0BD0020FBE70020F9E7C04625
:1054000088A6001000000000C903000058A7001083
:1054100070A6001000000000E9030000024B58785D
:10542000431E9841C0B27047240B0020024B1878ED
:105430004007C00F7047C046240B0020014B18786E
:105440007047C046BC24002070B50500274B187873
:10545000002800D070BD372200212548FEF7EAFE63
:10546000244C2000FBF7B3FF234B1C60234C20008F
:105470001C30FBF7C1FF200001F065FD204B1C60D4
:10548000204B002B04D02048FFF77EF81F4B1860FC
:1054900000240DE063001B19DA001C4B1B689B18ED
:1054A00002E023000FE000231B6898470134E4B2B8
:1054B000154B1B78A3420ED3124A002AF1D0A34207
:1054C000E8D8E31ADBB2002BEDD15A00D218D20093
:1054D0000F4B9B18E8E72800FFF7E4FB2800FFF7D5
:1054E0009FFB024B01221A700120B3E7BC2400206D
:1054F000240B0020DC0A00205C0B00204C0600205E
:10550000600B002089450010BB240020EC07002020
:10551000A8A7001010B501004378042B63D005D86C
:10552000022B2ED0032B00D086E010BD052B00D01F
:1055300082E0514B1B78DB07F7D54F4A13780420E4
:10554000834313704D4B1C68E269EFF3108072B611
:105550001368002BFCD0BFF35F8F2062200001F0A6
:10556000B7FCE269236ABFF35F8F0021116083F308
:1055700010880028D9D1A82241494248FEF796FF59
:10558000D3E73D4B1B78DB07CFD53B4B1A78012087
:1055900082431A701A78013082431A7000225A70BE
:1055A0001A78023082431A70344B1C68E269EFF3B8
:1055B000108072B61368002BFCD0BFF35F8F20629F
:1055C000200001F085FCE269236ABFF35F8F0021B0
:1055D000116083F310880028A7D1A8222849294800
:1055E000FEF764FFA1E7244B1B78DB079DD5224A19
:1055F0001378042003431370204B1C68E269EFF317
:10560000108072B61368002BFCD0BFF35F8F20624E
:10561000200001F05DFCE269236ABFF35F8F002187
:10562000116083F31088002800D07EE7A822144977
:105630001448FEF73BFF78E7104B1C68E269EFF374
:10564000108072B61368002BFCD0BFF35F8F20620E
:10565000200001F03DFCE269236ABFF35F8F002167
:10566000116083F31088002800D05EE7A822044967
:105670000448FEF71BFF58E7240B0020600B0020B6
:1056800048A7001070A6001070B584B006000D0089
:1056900014000C22002101A8FEF7CCFD6B461E7100
:1056A0005D71210001A8FFF735FF04B070BDF0B5B2
:1056B00085B007000E00150001AC0C22002120006F
:1056C000FEF7B8FD277001236370267129002000C2
:1056D000FFF720FF05B0F0BD70B584B006000D00E7
:1056E00014000C22002101A8FEF7A4FD6B461E71D8
:1056F00006236A4653710822290002A8FEF7A0FD7E
:10570000210001A8FFF706FF04B070BDF0B5CE463A
:10571000474680B585B080460F0016001D000CABD3
:105720001B78994601AC0C2200212000FEF782FD77
:1057300043462370072363702771039665714946BA
:105740002000FFF7E7FE05B0C0BCB946B046F0BD8B
:1057500070B5CB789B079B0F022B20D0032B44D036
:10576000012B01D0002070BD2B4B9B78022B0BD05E
:105770002A4A0C794D7907232B401B02234393427D
:1057800005DCFFF7F1FAEEE78022D200F1E7912283
:10579000D20023492348FEF789FE0020E3E71E4B91
:1057A0009B78022B0ED00A794C79072323401B02E9
:1057B0001343402BE5D91C4A19491A48FEF776FED7
:1057C0000020D0E70A794C79053323401B021343AC
:1057D000802292009342D4D06F3AFF3AD20010490F
:1057E0001048FEF763FE0020BDE70B4B9B78022BB1
:1057F0000FD040220C794D7907232B401B02234305
:105800009342BEDD094A06490648FEF74FFE0020D6
:10581000A9E78022D200EDE7240B0020FF0300005F
:1058200024A7001070A60010940400009B04000040
:10583000F0B5D6464F464646C0B581460C00170027
:105840009846089B9A46002516E0184A18491948B8
:10585000FEF72CFE00263000E0BCBA46B146A84652
:10586000F0BD154A12491348FEF720FEF3E7099AE6
:1058700013702378E4180135AF4214DD6378052BEB
:10588000E3D1E1788907890F4145DED121004846FF
:10589000FFF75EFF061EE4D0A378DA09012AE6D0FE
:1058A00052461370E5E70126D5E7C0465B040000C9
:1058B00034A7001070A600105C04000070B57F25AE
:1058C0000D40CC096A001E4B9B181B1920335B79D5
:1058D000DB07DE0F002B30D1194B9B181B1920332F
:1058E0005B795B072AD4174B18680121494203F002
:1058F000F7FC6A00124B9B181B1920335B79DB07FE
:1059000008D40F4B9B181B1920335B795B0712D50A
:10591000002600E00026002E08D06D0008494D1931
:105920002C1920346379042213436371054B1868E2
:1059300003F0B6FC02E00126EDE70026300070BD62
:10594000240B00205C0B002070B57F250D40CC0996
:10595000154B18680121494203F0C2FC6A00134B41
:105960009B181B1920335B79DB0708D40F4B9B185E
:105970001B1920335B795B0713D4002600E0002657
:10598000002E08D06900094D6D182C192034637958
:10599000042293436371044B186803F081FC3000C8
:1059A00070BD0126ECE7C0465C0B0020240B0020F4
:1059B000F0B5C64600B582B001937F250D40CE09F3
:1059C0006F00174CE419A41920346479E4071DD43E
:1059D0006F00134CE419A419203463790127BC46E5
:1059E00067463B436371019BFFF7DEF9002813D143
:1059F0006D000B4B5D19AE1920367379012293436C
:105A00007371737903329343737105E0054A064954
:105A10000648FEF74BFD002002B080BCB846F0BD42
:105A2000240B0020E104000014A7001070A6001051
:105A300070B57F240C40CD09FFF7D0F96400064B08
:105A40001B195B1920335A7902210A435A715A797A
:105A500001210A435A7170BD240B002070B57F24C8
:105A60000C40CD09FFF7CEF96400064B1B195B19FA
:105A700020335A7902218A435A715A7901398A436B
:105A80005A7170BD240B00207F220A40CB095200BE
:105A900003498918C918203148798007C00F704719
:105AA000240B0020F0B583B005000C00002000F0AE
:105AB00061FB237860221340602B10D0402B15D05F
:105AC0002278D206D20E012A00D1C7E0022A00D1E4
:105AD00009E1002A18D00026300003B0F0BDC64A04
